:020000040800F2
:1000000088350120010300080F1C0008BB1B0008F5
:100010000D1C0008BF140008892000080000000023
:100020000000000000000000000000004102000885
:10003000C1140008000000009D020008111C000807
:100040001B0300081B0300081B0300081B03000818
:100050001B0300081B0300081B0300081B03000808
:100060001B0300081B0300081B0300081B030008F8
:100070001B0300081B0300081B0300081B030008E8
:100080001B0300081B0300081B0300081B030008D8
:100090001B0300081B0300081B0300081B030008C8
:1000A0001B0300081B0300081B0300081B030008B8
:1000B0001B0300087D1C00081B0300081B0300082D
:1000C0001B0300081B0300081B0300081B03000898
:1000D0001B0300085D2000081B0300081B03000829
:1000E0001B0300081B0300081B0300081B03000878
:1000F0001B0300081B0300081B0300081B03000868
:100100001B0300081B0300081B0300081B03000857
:100110001B0300081B0300081B0300081B03000847
:100120001B0300081B0300081B0300081B03000837
:100130001B0300081B0300081B0300081B03000827
:100140001B0300081B0300081B0300081B03000817
:100150001B0300081B0300081B0300081B03000807
:100160001B0300081B0300081B0300081B030008F7
:100170001B0300081B0300081B030008000000000D
:100180001B0300081B03000800F002F800F049F808
:100190000AA090E8000C82448344AAF10107DA45E2
:1001A00001D100F03EF8AFF2090EBAE80F0013F0EB
:1001B000010F18BFFB1A43F001031847EC3600008B
:1001C0000C370000103A24BF78C878C1FAD852071B
:1001D00024BF30C830C144BF04680C6070470000C1
:1001E0000023002400250026103A28BF78C1FBD840
:1001F000520728BF30C148BF0B607047662903F023
:100200000383002070471FB503F0F9FA00F018FCD3
:1002100004000020002103F065FAE0601FBD10B566
:1002200010BD00F025FD1146FFF7EDFF01F0CEFFF8
:1002300000F043FD03B4FFF7F2FF03BC01F054FFED
:100240002C4B19680868B0E8F04F80F30988BFF3B9
:100250006F8F4FF0000080F311887047000000009E
:1002600008480068006880F308884FF0000080F3B9
:10027000148862B661B6BFF34F8FBFF36F8F00DF94
:1002800000BF00BF08ED00E0DFF80C00016841F49A
:1002900070010160704700BF88ED00E0EFF3098056
:1002A000BFF36F8F134B1A681EF0100F08BF20EDBD
:1002B000108A20E9F04F106009B44FF0500080F32D
:1002C0001188BFF34F8FBFF36F8F02F0EDFD4FF03A
:1002D000000080F3118809BC19680868B0E8F04F85
:1002E0001EF0100F08BFB0EC108A80F30988BFF32E
:1002F0006F8F704730000020EFF3058070470000DB
:100300000948804709480047FEE7FEE7FEE7FEE7A9
:10031000FEE7FEE7FEE7FEE7FEE7FEE704480549E5
:10032000054A064B70470000291C00088901000897
:10033000882F012088350120883101208831012053
:10034000704700000FB4044910B503AA029800F0EA
:1003500033FB10BC5DF814FB2C0000202DE9F047A6
:100360004FF0000A89460446C0F820A02046E16804
:100370008847002876D0252806D0D4E90121904767
:10038000206A401C2062F1E7E1682046002588478A
:10039000C4F81CA006460027C4F818A02A2E09D0CD
:1003A000304601F09AFE38B304EB8708303EC8F8B7
:1003B000186019E059F8041B204604EB870291618C
:1003C000E1688847012F064618D1E069002820DA45
:1003D00025F020051DE0D8F8180000EB800006EBA2
:1003E00040003038C8F818002046E16888470646C3
:1003F00001F073FE0028EED1012F0AD02E2E08D175
:100400002046E16888477F1C0646022F45F02005FC
:10041000C4DBA069002803DA404245F00105A06171
:10042000E80701D025F01005B6B1A6F14100192862
:1004300002D8203645F400654A46314620462560FC
:100440004D46FFF7DBFE58B1012806D0ED1D25F023
:10045000070000F1080989E704E005F1040985E7D0
:1004600030468AE7206ABDE8F087032A40F23080F0
:1004700010F0030C00F0158011F8013BBCF1020FE5
:10048000624498BF11F801CB00F8013B38BF11F866
:10049000013BA2F1040298BF00F801CB38BF00F87D
:1004A000013B11F0030300F09982083AC0F0088084
:1004B00051F8043B083A51F804CBA0E80810F5E7DE
:1004C000121D5CBF51F8043B40F8043BAFF30080C1
:1004D000D20724BF11F8013B11F801CB48BF11F836
:1004E000012B24BF00F8013B00F801CB48BF00F806
:1004F000012B704702F0FF0343EA032242EA024263
:1005000000F002B84FF000020429C0F0128010F091
:10051000030C00F01B80CCF1040CBCF1020F18BFDF
:1005200000F8012BA8BF20F8022BA1EB0C0100F072
:100530000DB85FEAC17C24BF00F8012B00F8012B45
:1005400048BF00F8012B70474FF0000200B513467A
:1005500094469646203922BFA0E80C50A0E80C50E3
:10056000B1F12001BFF4F7AF090728BFA0E80C5094
:1005700048BF0CC05DF804EB890028BF40F8042B8D
:1005800008BF704748BF20F8022B11F0804F18BFFA
:1005900000F8012B704770477047704770477047ED
:1005A0002DE9FF4F0C461E464FF0FF378BB0D2E9C6
:1005B0000001DDF860800A908A46C1F30A5505B94A
:1005C0003D46002108464FF00000BAF1000F00F44C
:1005D000400005DA00EB80004FF4400101EA5000D2
:1005E0004FEA9059B9F1010F00DDB9460A9850EA77
:1005F0004A000ED044F61050A5F2FF3545432F14A3
:10060000B8F1000F1ED07542291E1EDDC9F100028F
:100610001CE0B8F1010F4FF0000001D0302103E0E1
:10062000F24305E02154401CB042FBDB304600227F
:10063000002121540B99C1F80880C1E900200FB0B6
:10064000BDE8F08FBD1B6D1CDEE74A4600DA69424B
:1006500006A800F097FA06AB93E8070003AB83E81F
:10066000070050460A9900F06FFB8DE80700A0F5DF
:1006700000501F3800900398002D09DD42F21F0141
:100680004A46084403A90390684600F0CEFD08E0FE
:10069000A0F500504A461F3803A90390684600F0B1
:1006A000D8FD8DE807000004000C03D04FF0FF30A8
:1006B000410800E01046B8F1000F03D0002200927C
:1006C00015461EE0751E05D400F0BEF930326255A5
:1006D0006D1EF9D5B3460122084302D000227F1CCB
:1006E00004E02078302801D100227F1E002A0997DB
:1006F00086D01DE0112D07DA00F0A6F930326255E0
:100700006D1C50EA0102F5D1084302D00098C8B12F
:100710000EE00021681E05E0235C625C63542254F5
:10072000401E491C8142F7DBAB46A81B401E0990C6
:10073000002004F80B000B98099AC0F80880C0E963
:10074000002B7CE711264FF0000859E72DE9F04F08
:1007500088460446D21D22F0070191B0D1E900017C
:10076000CDE90A0101F091FC02460B98C00F01D0BF
:100770002D2007E02068810701D52B2002E02021F1
:1007800001EAC000032A099001D0072A05DB0346CD
:100790004146204600F0B6F90BE12078800601D5ED
:1007A000E06900E00620B8F1650F814606D0B8F197
:1007B000660F18D0B8F1670F70D131E00020B9F1A1
:1007C000110F009001DB112301E009F101030AAAD6
:1007D00001A90CA8FFF7E4FEDDE90C70002609F181
:1007E0000105834647E001204B4600904FF000474B
:1007F0000AAA01A90CA8FFF7D3FEDDE90DB00C99F8
:100800005D46002610B909F101000D18B9EB05008D
:1008100003D4C0F1FF3609F10105A5EB09002BE077
:10082000B9F1010F01DA4FF001090020B9F1110F00
:100830000090484601DD112300E003460AAA01A901
:100840000CA8FFF7ADFEDDE90C704D46002683468F
:10085000207800070AD4AB4500DA5D4601A8012DD7
:1008600004DD411911F8011C302907D04F4502DA87
:1008700017F1040F04DA012082460FE06D1EEEE747
:10088000002F02DCED1B3E4403E0781CA84200DD93
:100890007D1CB81B00F1010A4FF0004720780007CB
:1008A00003D4AA4501DB4FF0FF3A0021B7F1004F16
:1008B0000DF143088DF8431024D002202B23002F84
:1008C00001DA7F422D230A21021EA0F1010000DC83
:1008D0005FB197FBF1FC97FBF1F201FB1C7C174623
:1008E0000CF1300C08F801CDEEE7A8F1010003701F
:1008F0002188090501D5452100E06521A0F1010805
:1009000000F8011C09980FA9A1EB0807FF1D00B111
:100910000120411901EBEA70A1693844081A401E10
:10092000A0612078C00602D42046AFF30080099869
:1009300028B1D4E901219047206A401C2062207828
:10094000C00622D52046AFF300801EE0002E04DB57
:10095000B34502DD01A8805D00E03020D4E901212B
:100960009047206A401C2062761CAAF101005FEAD1
:10097000000A0AD100F064F8C0680168405CD4E95C
:1009800001219047206A401C2062281EA5F1010524
:10099000DCDC07E0D4E9012118F8010B9047206A5C
:1009A000401C2062381EA7F10107F3DC2046AFF39C
:1009B0000080032011B043E6074B70B50D467B4421
:1009C00000F08DF80446284600F04AF910B14FF0C7
:1009D000FF3070BD204670BDBB17000010B5203A37
:1009E000C0F00B80B1E81850203AA0E81850B1E8E8
:1009F0001850A0E81850BFF4F5AF5FEA027C24BF9E
:100A0000B1E81850A0E8185044BF18C918C0BDE894
:100A100010405FEA827C24BF51F8043B40F8043B5D
:100A200008BF7047D20728BF31F8023B48BF11F812
:100A3000012B28BF20F8023B48BF00F8012B70476C
:100A400000487047442F012030B5B0F10A024FEA48
:100A5000900E71F100034EEA817EB0EB0E0061EB67
:100A600091014FEA101E4EEA017E10EB0E0041EBA1
:100A700011114FEA102E4EEA016E10EB0E0041EB01
:100A800011214FEA104E4EEA014E10EB0E0041EBE1
:100A90001141401841F100014FEAD00040EA417095
:100AA0004FEAD10110EB80054FEA810444EA9074CB
:100AB00044EB01046D1944EB0404521BA3414FF0B5
:100AC000000348BF0A3200D530BD401C41F100018F
:100AD00030BD000001694A1C02610878704700B50A
:100AE0008FB0CDE901310021059105497944CDE967
:100AF000031011466846FFF731FC0FB000BD00003F
:100B0000E5FFFFFF2DE9F0411F460446032601687B
:100B1000072A01F4006004DB08B116A505E016A55C
:100B200003E008B115A500E015A521F01000206034
:100B3000A069C01EA0610FB1401EA0612046AFF3A6
:100B400000804FB1D4E9012138469047206A401C0B
:100B50002062C01C206206E0206AFAE7D4E9012185
:100B600015F8010B9047761EF8D22046AFF30080AF
:100B7000BDE8F0814E414E006E616E00494E460068
:100B8000696E66002DE9F047814616468AB0334803
:100B900078440DC88DE80D0030487844801C03ACC3
:100BA0000DC884E80D0041F69B300844372190FBC6
:100BB000F1F290FBF1F5A5F1800501FB12041B3C5D
:100BC00002D56442012000E00020DFF890A08046BA
:100BD0000027FA44AAF1BE0A0DE0E00709D0324628
:100BE000684607EB47010AEB810100F032FB8DE814
:100BF000070064107F1C002CEFD1184F7F44AC3FDE
:100C000018E0E80714D007EB04100DF1180A90E87B
:100C10000E008AE80E00C068F04201D198190890D1
:100C2000324606A903A800F014FB03AB83E80700D3
:100C30006D10641C002DE4D132466946B8F1000FF6
:100C400003A802D000F0F1FA01E000F002FBC9E9CC
:100C50000001C9F808200AB0BDE8F087FC2C0000AC
:100C6000007B00F08000704700487047242F01206F
:100C70007546FFF7F9FFAE4605006946534620F07A
:100C80000700854618B020B5FFF748FBBDE82040B7
:100C90004FF000064FF000074FF000084FF0000B38
:100CA00021F00701AC46ACE8C009ACE8C009ACE8EB
:100CB000C009ACE8C0098D4670470446AFF3008018
:100CC0002046FFF7B7FA00004FF0013C50F8042B24
:100CD00051F8043B9A4221D1A2EB0C03934313EA4F
:100CE000CC1317D150F8042B51F8043B9A4215D17C
:100CF000A2EB0C03934313EACC130BD150F8042B53
:100D000051F8043B9A4209D1A2EB0C03934313EA36
:100D1000CC13DBD04FF00000704700BFD01A01BAEF
:100D2000B1FA81F101F0180122FA01F0CB40C1F1D2
:100D30002001DBB2C0B2C01A2CFA01F3D11A9143E0
:100D400011EAC311E6D170475FEA400C08BF91F089
:100D5000000F4FEA8C234FEAC12243EA51514FEA78
:100D60001C5018BF00F5F0404FEA300018BF41F0AA
:100D700000415FEA6C5C00F02980BCF1FF3F08BFD6
:100D800040F080407047130C06BF12044FF0100C67
:100D90004FF0000C130E04BF12020CF1080C130FDD
:100DA00004BF12010CF1040C930F04BF92000CF16C
:100DB000020CD30F04BF52000CF1010C11464FF08E
:100DC0000002A0F11F00A0EB0C00704711F0004FD3
:100DD00008BF704731F000413FF4D5AF0B0C06BFA0
:100DE00009044FF0100C4FF0000C0B0E04BF090269
:100DF0000CF1080C0B0F04BF09010CF1040C8B0F54
:100E000004BF89000CF1020CCB0F04BF49000CF1A8
:100E1000010CCCF12003A0EB0C0022FA03F302FA40
:100E20000CF241EA030100F10100704720F07F4C11
:100E300080EA030023F07F47ACEB070303F57C5304
:100E400000F0004003F1FF032DE980494FEA154B04
:100E500009B44FEA144325EA0B4E24EA03480FF283
:100E6000042606EB132749083E785FEA320203FBAB
:100E70000667C7F5000707FB06F64FEA54374FEA47
:100E8000D64606F1020607FB066CCCF1005C4FEA81
:100E90001C472CEA074C07FB06F40CFB06F504EB99
:100EA00015464FEA961634BF00204FF000404FEA37
:100EB000D13706FB07FC4FEA1C4C0CFB0BF7D21B8F
:100EC00003FB0CF761EB07010CFB0EF7B0EB0740DF
:100ED00072EB17420CFB08F734BFA2EB0742B2EBF0
:100EE000074261EB17414FEA0C444FEA910706FBBA
:100EF00007FC4FEA1C4C0CFB0BF7B0EBC74072EB46
:100F0000573203FB0CF734BFA2EBC742B2EBC74228
:100F100061EB57310CFB0EF7B0EBC70072EB577269
:100F20000CFB08F734BFA2EBC702B2EBC70261EBC0
:100F30005771039F4FEA816141EA921104EBCC049F
:100F40004FEAD1374FEA826206FB07FC42EA901271
:100F50004FEA80604FEA1C4C0CFB0BF7D21B03FBE3
:100F60000CF761EB07010CFB0EF7B0EB074072EBDF
:100F700017420CFB08F734BFA2EB0742B2EB074263
:100F800061EB17414FEA8C554FEA910704EB9C2423
:100F900006FB07FC4FEA1C4C0CFB0BF7B0EBC74001
:100FA00072EB573203FB0CF734BFA2EBC742B2EB34
:100FB000C74261EB57310CFB0EF7B0EBC70072EB89
:100FC00057720CFB08F734BFA2EBC702B2EBC702A3
:100FD00061EB577115EB4C254FEA816141EA9211A3
:100FE0004FEA82624FEAD13742EA901206FB07FCD1
:100FF00044F100044FEA80604FEA1C4C0CFB0BF7F5
:10100000D21B03FB0CF761EB07010CFB0EF7B0EBF7
:10101000074072EB17420CFB08F734BFA2EB074204
:10102000B2EB074261EB174115EB1C154FEA81311A
:1010300041EA92414FEA823242EA90424FEA8030DE
:101040004FEA0C7644F1000448EA03434EEA0B48A9
:101050004FF0000EB2EB080C71EB030724BF6246A1
:1010600039464EEB0E0E4FF0000B0018524149412D
:101070004BEB0B0BB2EB080C71EB03077BF1000B96
:1010800024BF624639464EEB0E0E4FF0000B00189F
:10109000524149414BEB0B0BB2EB080C71EB0307D0
:1010A0007BF1000B24BF624639464EEB0E0E51EA2F
:1010B000020718BF46F0010616EB0E7655F1000246
:1010C00054F1000103D5BDE88901BDE80088BDE801
:1010D0008901BDE80048B619524141EB0101A3F175
:1010E0000103704780807F7E7D7C7B7A797877767C
:1010F00076757473727171706F6E6E6D6C6C6B6AF5
:101100006A69686867666665646463636261616092
:10111000605F5F5E5E5D5D5C5C5B5B5A5A5959580F
:101120005857575656555555545453535252525179
:10113000515050504F4F4F4E4E4D4D4D4C4C4C4BCF
:101140004B4B4A4A4A494949484848474747474616
:101150004646454545444444444343434342424252
:1011600042414141002B26D4770021D01CB54FEAE3
:10117000370703B44FF010004FF010014FF000009C
:101180000FBCBDE810400BF1010BBBF1010F08BF14
:101190005FEA170722BF12F1010211F101014FF0BE
:1011A000004143F1000300F0004043EA00007047B3
:1011B000F9D35708DAE746EA064613F1400F4FEA3B
:1011C00016461FDD13F1200FDFBF16430A4600212C
:1011D00020335B42C8D0C3F1200746EA064602FA34
:1011E00007F74FEA164646EA0706C3F1200722FA38
:1011F00003F201FA07F721FA03F14FF0000342EA84
:101200000702B1E746EA020646EA06464FEA1646F4
:1012100046EA0106BCBF46EA0646360C4FF000031C
:101220004FF000024FF000019EE72DE9C0489346C1
:1012300030B491E8380007C831EA400C48BF34EABE
:10124000430C03D5FFF7F2FDFFF78CFFF0BCBDE8C0
:1012500000882DE9C048934630B491E8380007C8AB
:1012600010F0804F08BF13F0804F03D100F005F855
:10127000FFF778FFF0BCBDE8008820F07F4780EAE8
:10128000030023F07F4C07EB0C03A3F57C5300F025
:101290000040A3F1FE0392F0000F00F0B38095F040
:1012A000000F00F077802DE901494FEA11404FEA25
:1012B000144621EA004800FB06FC24EA064708FB26
:1012C00006F607FB08F800FB07F718EB06484CEB9F
:1012D000164C4FEA124B18EB07484FEA15464CEBF9
:1012E000174022EA0B4E0BFB06FC25EA06470EFBD5
:1012F00006F607FB0EFE0BFB07F71EEB064E4CEB4C
:10130000164C4FF000061EEB074E4CEB174B18EB3C
:101310000B0840F1000018EB0E0B58EB000840F1F1
:1013200000008F1A4FF000013CBFC943661B14BF79
:10133000B5EB040C00213CBFC943F61B4FEA174430
:101340004EEA8E0E27EA04454FEA1C4704FB07626B
:101350002CEA074C05FB07F70CFB05F604FB0CFC1D
:1013600016EB074642EB174216EB0C4642EB1C42CB
:101370001BEB060658EB0202414146EA9E0601D5E8
:10138000BDE80189B619524141EB0101A3F1010306
:10139000BDE801894FEA14454FEA114724EA0546A2
:1013A00021EA074C05FB07F406FB07F70CFB06F1E7
:1013B00005FB0CFC11EB074144EB17444FEA1247C5
:1013C00011EB0C4144EB1C4422EA074C05FB07F2ED
:1013D00006FB07F70CFB06F605FB0CFC16EB0746B5
:1013E00042EB174216EB0C4642EB1C456A1854F1CF
:1013F000000148BF7047B619524141EB0101A3F10A
:101400000103704795F0000F37D04FEA11424FEAC1
:10141000144721EA024624EA074C02FB07F106FBC7
:1014200007F70CFB06F402FB0CFC14EB074441EB42
:1014300017414FEA154714EB0C4441EB1C4125EAD8
:10144000074C02FB07F506FB07F70CFB06F602FB51
:101450000CFC16EB074645EB174516EB0C4645EB27
:101460001C42121951F1000148BF7047B619524190
:1014700041EB0101A3F1010370474FEA14454FEA24
:10148000114724EA054621EA074C05FB07F106FB54
:1014900007F70CFB06F24FF0000605FB0CFC12EB05
:1014A000074241EB174112EB0C4251EB1C4148BF84
:1014B0007047921841EB0101A3F101037047FEE769
:1014C000704790F83510022903D080214165012032
:1014D0007047052180F835100068016821F001018E
:1014E00001600020704700002DE9F84FDFF88C9173
:1014F000002209F1040A0AF1040B4FF00F080BF166
:10150000040E01260B6896403340B34271D14C68FB
:10151000022C01D0122C11D1D40800EB84073D6AB3
:101520005407E40E08FA04FC25EA0C05D1F810C0B3
:101530000CFA04FC4CEA050CC7F820C007685400FC
:10154000032591F804C0A5400CF0030CAF430CFA3E
:1015500004FC4CEA070CC0F800C04F68012F05D00E
:10156000022F03D0112F01D0122F11D18768D1F88B
:101570000CC0AF430CFA04FC4CEA070CC0F808C0DE
:101580004768B7430E79C6F3001696403E4346605F
:10159000C668AE438D68A5403543C5604C68E4001D
:1015A00065D5374C256845F480452560246822F0D0
:1015B000030504F480440094324C2E19D6F80878C0
:1015C0009407250F08FA05F4A7432F4CA04201D138
:1015D000002424E02D4CA04201D101241FE02C4C1A
:1015E000A04201D102241AE02A4CA04202D10324D5
:1015F00015E03CE0284CA04201D104240FE0274C28
:10160000A04201D105240AE0254CA04201D10624C4
:1016100005E0244CA04201D1072400E00824AC409E
:101620003C43C6F80848D9F800404D464E689C43F4
:10163000F60300D51C432C60DAF8004055464E688E
:101640009C43B60300D51C432C60DBF800405D468C
:101650004E689C43F60200D51C432C60DEF8004027
:1016600075464E689C43B60200D51C432C60521C44
:10167000102AFFF446AFBDE8F88F0000003C01409F
:1016800044380240003001400000024000040240A3
:1016900000080240000C024000100240001402400A
:1016A00000180240001C02400AB181617047090421
:1016B000FBE70000024881680278114481607047AE
:1016C00018000020002809DB00F01F0201219140D2
:1016D0004009800000F1E020C0F8001170470000D0
:1016E000F0B40E4B1B68C3F30223C3F10704042CB0
:1016F00000D904241D1D072D01D2002300E0DB1EAC
:10170000012606FA04F56D1E0D409D409E40761E92
:10171000164045EA0601F0BC00F0CFBC0CED00E03D
:101720000448054900680968044AC1F38221515CF4
:10173000C840704714000020083802400C380008E8
:101740000448054900680968044AC1F34231515C04
:10175000C840704714000020083802400C380008C8
:101760004FF0E0210428086903D020F0040008614C
:10177000704740F00400FAE770477047704770B553
:101780000446006801694FF00005C943890715D474
:10179000C168C943890711D4E91E0161012020777E
:1017A000206880698007204602D0FFF7E7FF04E049
:1017B00000F098F8204600F096F825772068016937
:1017C000C943490717D4C168C943490713D46FF007
:1017D00004010161022020772068806910F4407FB5
:1017E000204602D0FFF7CAFF04E000F07BF8204655
:1017F00000F079F8257720680169C943090716D4F4
:10180000C168C943090712D46FF0080101610420BF
:1018100020772068C0698007204602D0FFF7AEFF1E
:1018200004E000F05FF8204600F05DF825772068BE
:101830000169C943C90617D4C168C943C90613D48D
:101840006FF010010161082020772068C06910F452
:10185000407F204602D0FFF791FF04E000F042F8FD
:10186000204600F040F8257720680169C943C90780
:1018700008D1C168C943C90704D1891E0161204646
:1018800000F032F820680169C943090609D4C1682B
:10189000C943090605D46FF0800101612046FFF7B6
:1018A0006BFF20680169C943490609D4C168C9436F
:1018B000490605D46FF040010161204600F026F88A
:1018C00020680169C94389060BD4C168C9438906E8
:1018D00007D46FF0200101612046BDE87040FFF79A
:1018E0004CBF70BD704770470649884206D1064913
:1018F000D1F8A80218B10020C1F8A8027047012051
:10190000FAE70000B40100200080424270477047AF
:1019100010F8391F407808437047000070B502681E
:1019200004461068D168536910F00F0F51D003F0CE
:10193000010501F4907635435DD0C20705D0CA0594
:1019400003D5E26B42F00102E263420705D5DA07F4
:1019500003D0E26B42F00202E263820705D5DA07A8
:1019600003D0E26B42F00402E263020705D5DA0716
:1019700003D0E26B42F00802E263E26B002A34D04B
:10198000800604D5880602D5204600F093F9206829
:101990004069E16BC0F3801001F00801014320466B
:1019A00024D000F079F92068416949061AD54169C7
:1019B00021F040014161606BA0B11B490165606B82
:1019C000FFF77FFD002810D0606B016DBDE870400F
:1019D000084783060FD58B060DD52046BDE870401D
:1019E00000F068B92046FFF792FF70BDFFF78FFF48
:1019F0000020E06370BD030606D50B0604D5204623
:101A0000BDE8704000F0F8BA4006F3D54806F1D5BD
:101A1000D168204621F04001D160202184F839109E
:101A200000F0CAF870BD0000891C000870B5040001
:101A300004D094F83900002510B106E0012070BDF3
:101A400084F83850204600F023F8242084F8390028
:101A50002068C16821F40051C160204600F076F989
:101A60002068016921F4904101612068416921F0F9
:101A70002A0141612068C16841F40051C160E563F9
:101A8000202084F8390084F83A00002070BD00005E
:101A900010B500681A4986B088422FD119480168EC
:101AA00041F001010160006800F001000590154857
:101AB0001430016841F0100101600068012100F05C
:101AC000100005904FF4007000900220CDE9010154
:101AD000039007200C4C049069462046FFF704FD54
:101AE0002115009169462046FFF7FEFC2520FFF7EF
:101AF000E9FD032211462520FFF7F2FD06B010BDD7
:101B000000100140303802400000024090F83A30A6
:101B1000202B22D1F9B1F2B190F83830012B1CD032
:101B200081628285C2850021C163222280F83A2029
:101B300080F838100168CA6842F48072CA6001688F
:101B40004A6942F001024A610068C16841F020011F
:101B5000C1600020704701207047022070470000DC
:101B600030B50068114988420CD1114A50880104EF
:101B700008D41146440409784FF0000306D50A2919
:101B800001D0538030BD40F400400DE00D2909D054
:101B9000C0F30D04074D401C80B229555080C72862
:101BA000EFD830BD40F48040508030BD001001407F
:101BB00028000020AC0000207047FEE7114810B557
:101BC000016886B041F02001016000680E4C00F011
:101BD000200005904FF4C060009001200190029019
:101BE0000320039069462046FFF77EFC0122510244
:101BF0002046FFF759FD012291022046FFF754FDD0
:101C000006B010BD3038024000140240FEE77047B5
:101C100010B5FFF74FFD01F095FB012803D0BDE89B
:101C2000104001F0E9B910BD1048016841F470019D
:101C300001600F48016841F0010101600C4A002178
:101C40000832116002680B4B1A400260031D0A4AF9
:101C50001A60026822F48022026005480C3001609C
:101C600002495806803908607047000088ED00E09E
:101C700000380240FFFFF6FE103000240148FFF755
:101C80007EBD0000B401002010B5806B0021C1852D
:101C9000C184FFF73CFE10BD0168CA6822F490724F
:101CA000CA6001684A6922F001024A61202180F875
:101CB0003A10704710B590F83A10222901D002204E
:101CC00010BD8168B1F5805F11D0016900290168FC
:101CD0001FD0496801F07F03816A4A1C82620B7041
:101CE000C18D491E0904090CC18518D02BE0026979
:101CF000816A002A0268526805D0D2B20A80816ADD
:101D0000491C8162ECE7C2F308020A80816A891CDF
:101D1000F7E74A68816A4B1C83620A70E0E7016852
:101D2000CA6822F02002CA600168CA6822F4807280
:101D3000CA6001684A6922F001024A61202180F8E4
:101D40003A10FFF70DFF002010BD00002DE9F04113
:101D5000044600680169E26821F4405111430161C1
:101D6000A1682069E269014360691043014320686A
:101D7000C26849F20C639A430A43C2602068416911
:101D8000A26921F4407111434161E0696425B0F515
:101D9000004F974A974920684FF032083FD0884259
:101DA00001D090427CD1FFF7CBFC00EBC00101EBEE
:101DB000001061688900B0FBF1F6FFF7C1FC00EB91
:101DC000C00101EB001061688900B0FBF1F0B0FBCD
:101DD000F5F06FF01801484306EB800108EB0110A5
:101DE000B0FBF5F000F0F006FFF7AAFC00EBC00135
:101DF00001EB001061688900B0FBF1F0B0FBF5F079
:101E000006EB0016FFF79CFC00EBC00101EB001095
:101E100061688900B0FBF1F7FFF792FCD2E08842DD
:101E200001D090423DD1FFF78BFC00EBC00101EBEC
:101E3000001061684900B0FBF1F0B0FBF5F006015D
:101E4000FFF77EFC00EBC00101EB00106168490068
:101E5000B0FBF1F7FFF774FC00EBC00101EB0010E1
:101E600061684900B0FBF1F0B0FBF5F06FF01801CC
:101E7000484307EB800108EBC100B0FBF5F000F030
:101E8000F80006EB4006FFF75BFC00EBC00101EB3E
:101E9000001061684900B0FBF1F7FFF751FC3CE02E
:101EA00055E0FFF73DFC00EBC00101EB001061685D
:101EB0004900B0FBF1F0B0FBF5F00601FFF730FC94
:101EC00000EBC00101EB001061684900B0FBF1F7C5
:101ED000FFF726FC00EBC00101EB00106168490030
:101EE000B0FBF1F0B0FBF5F06FF01801484307EBE1
:101EF000800108EBC100B0FBF5F000F0F80006EB44
:101F00004006FFF70DFC00EBC00101EB001061681B
:101F10004900B0FBF1F7FFF703FC00EBC00101EB58
:101F2000001061684900B0FBF1F0B0FBF5F06FF014
:101F30001801484307EB800108EBC100B0FBF5F046
:101F400000F00700216830448860BDE8F081FFF7A9
:101F5000E7FB00EBC00101EB001061688900B0FBFA
:101F6000F1F6FFF7DDFB00EBC00101EB001061684B
:101F70008900B0FBF1F0B0FBF5F06FF018014843B9
:101F800006EB800108EB0110B0FBF5F000F0F00665
:101F9000FFF7C6FB00EBC00101EB00106168890090
:101FA000B0FBF1F0B0FBF5F006EB0016FFF7B8FB65
:101FB00000EBC00101EB001061688900B0FBF1F794
:101FC000FFF7AEFB00EBC00101EB00106168890078
:101FD000B0FBF1F0B0FBF5F06FF01801484307EBF0
:101FE000800108EB0110B0FBF5F000F00F00A9E74D
:101FF000001401400010014090F83910212901D04F
:10200000022070478168B1F5805F016A0BD04A1CDD
:102010000262026809785160C18C491E0904090CEA
:10202000C1840ED017E009880268C1F3080151602D
:1020300001690029016A02D0491C0162ECE7891C90
:10204000FBE70168CA6822F08002CA600068C168C4
:1020500041F04001C16000207047000010B5084801
:10206000FFF75CFC0648FFF753FC2028FAD1012259
:1020700004490348FFF74AFD0028F8D110BD0000CD
:102080007401002028000020FEE703B401984100FD
:10209000009850EAC12018BF04204A0D18BF40F034
:1020A000010040F2FF72B2EB515F08BF40F0020046
:1020B000012808BF052002B070470907090E002853
:1020C00004DB00F1E02080F80014704700F00F00FE
:1020D00000F1E02080F8141D704730380A2801D242
:1020E00001207047002070477047000010B504467B
:1020F0000420FFF735FB094804604FF47A7014FBA5
:1021000000F14FF0E020026942F0020202614161F9
:10211000016941F00101016110BD000024000020AF
:102120002DED028B0C4C9FED0D8A4FF47A7594EDDA
:10213000000A30EE080A84ED000A10EE100A01F0E1
:10214000EDFA41EC100B06A053EC102BFEF7FAF859
:10215000284600F09DFDEAE7000000200AD7233C56
:10216000666C6F61745F6E756D20B5C4D6B5CEAA0E
:102170003A20252E34660D0A0000000003490A6843
:102180005206FCD5C2B24A60704700000010014000
:10219000044CD4F8A402C043C4F8A402322000F0D6
:1021A00077FDF6E7008042420025074C01264FF4F8
:1021B0004877C4F8A852C82000F06AFDC4F8A862A5
:1021C000384600F065FDF4E7008042421CB5A820C7
:1021D000FFF78CFF4FF4E13000F038FCFFF7EEFC26
:1021E00006490120CDE900010023802204A107480F
:1021F00001F07AF800F018FE00201CBD0400002059
:102200007374617274207461736B0000C1290008DB
:102210002DE9F0411E4D0F460446EE682868001D6A
:1022200000F030FC38B9286890F82C100120884064
:10223000296981432961601C15D1A7B115492A6814
:10224000486890602B688268DA602A688368121D8B
:102250005A602A68121D8260286841610868401C23
:102260000860BDE8F08128683444B44244602968BD
:1022700005D2E86BBDE8F041091D00F024BCA86B55
:10228000091D00F020FCA86A8442EAD2AC62E8E7AB
:1022900030000020E80200202DE9F041044600F063
:1022A00037FC364EB068401CB0603068344F10B117
:1022B000706940B32DE03460B068012829D1002551
:1022C00005EB850007EB800000F0EFFB6D1C052D92
:1022D000F6D32B48643000F0E8FB2948783000F052
:1022E000E4FB27488C3000F0E0FB2548A03000F0EC
:1022F000DCFB2348B43000F0D8FB21486430B063E5
:102300001430F06305E03068E16AC06A884200D8A2
:102310003460706A0121401C70622064E06A326996
:1023200081401143316100EB800007EB8000406881
:10233000A0608168E1608268211D51608160E06A6F
:1023400000EB800007EB8001616157F82010491C09
:1023500047F8201000F0FCFB706900280CD03068B2
:10236000E16AC06A884207D206494FF0805008608F
:10237000BFF34F8FBFF36F8FBDE8F08130000020B7
:102380003402002004ED00E010B500F0C1FB0E4C5B
:102390002068A0B90D4800F088FB0C48143000F00C
:1023A00084FB0A48E0601430206100220C210A20DE
:1023B00000F038FE206010B105A100F021FCBDE85E
:1023C000104000F0C5BB000070000020FC0200209F
:1023D000546D72510000000030B4026C0B46002AAC
:1023E0000BD0C1681144C1608468A14201D3016867
:1023F000C16030BC1846FEF738B830BC704710B525
:102400000446006B00F0B8FB2046BDE8104000F029
:10241000B3BB00000E484FF49631420706D0C01DF2
:102420000B4920F00700411AC1F59631094B0022F3
:102430000144C3E900020839143B21F00701196087
:102440004A600A600A1AC0E900129A605A6070472E
:102450002403002098000020134E144DA6F1A0077D
:102460004FF08058DFF8489011E000F051FBF06821
:10247000C468201D00F006FBA868401EA8606868BC
:10248000401E686000F064FB2046FFF7B8FF6868F4
:102490000028EAD138680128F9D9C9F80080BFF3CB
:1024A0004F8FBFF36F8FF2E7D4020020300000207F
:1024B00004ED00E02DE9F0470D46DDE909841746FB
:1024C000824691009946089EA522206BFEF712F8DD
:1024D0006FF00301206B01EB8701084420F0070730
:1024E000780707D0502080F31188BFF34F8FBFF3D8
:1024F0006F8FFEE765B100202218295C82F8341046
:10250000295C11B1401C0A28F6D3002084F83D0054
:10251000052E07D3502080F31188BFF34F8FBFF3F0
:102520006F8FFEE7E662201DA66400F0C9FA04F191
:10253000180000F0C5FA2461C6F105006462A061CC
:102540004A465146384600F025FA2060B8F1000F9F
:1025500001D0C8F80040BDE8F087000030B511494F
:1025600000E011460A688242FBD34B685C18844243
:1025700003D1406818444860084643681C189442D8
:1025800009D1084C143C2468A24209D052681A446C
:1025900042600A6812680260814200D0086030BD63
:1025A0000460F9E79800002070B5002441600B4DED
:1025B0000061914206D8D11A8269914206D2011D6A
:1025C000286907E09A4203D2994201D3012403E02B
:1025D000011DE86800F077FA204670BD7000002009
:1025E00010B5044600F094FAA06B20B1002400F06E
:1025F000AFFA204610BD0124F9E7000070B5064689
:102600000D480D46C068C068C468201D00F03AFA45
:1026100094F82800410705D52A463146204600F0A7
:10262000B5F803E000F0FE0084F828002046216A97
:10263000BDE8704008470000700000207FB5374EAD
:1026400063E00098002860DB029C606910B1201DE7
:1026500000F018FA03A800F0BBF8054600980A2815
:1026600053D2DFE800F0520505282E460505282E36
:1026700094F828002A4640F0010084F828000198C8
:10268000A169034601442046FFF78EFF40B394F84A
:102690002800410707D50198A1692A460144204630
:1026A00000F074F803E000F0FE0084F82800216ACE
:1026B0002046884729E014F8280F00F0FE0020701B
:1026C00023E094F8280040F0010084F828000198E5
:1026D000A06130B141192B461A462046FFF764FF2E
:1026E00013E0502080F31188BFF34F8FBFF36F8F3B
:1026F000FEE794F82800810703D4204600F03CFA56
:1027000003E000F0FE0084F82800002269463068EB
:1027100000F010FD002894D17FBD00007000002063
:10272000F8B50D46064600F0B7FB684600F050F8D5
:102730000446009810B100F01BFFF8BD1148ADB180
:1027400001690968D9B10025311B2A46006800F0EB
:102750007DFA00F00DFF0028EFD10B494FF08050BB
:102760000860BFF34F8FBFF36F8FF8BDA642EBD861
:1027700000F0FEFE21463046FFF740FFF8BD012580
:10278000E2E700007000002004ED00E070B516469E
:102790000C46054604E0A869296A0444284688478F
:1027A000A8692346011932462846FFF7FDFE002896
:1027B000F1D170BD0548816B096821B1816BC96891
:1027C0000968816270474FF0FF31FAE7300000205E
:1027D0002DE9F041064600F0C3FD0E4D0446A86801
:1027E000844214D24FF0FF3704E0C06839460068D5
:1027F000FFF704FFE86801680029F6D12969C5E9F7
:102800000310012030602046AC60BDE8F08100205C
:10281000F8E700007000002008484068401C4FF0B6
:10282000500080F3118804D0BFF34F8FBFF36F8F38
:10283000FEE7BFF34F8FBFF36F8FFEE7A0000020CE
:10284000084CE068016839B1002139B10020FFF778
:1028500067FFFFF7F3FEF4E70121F6E7C0680068C1
:10286000F5E70000700000202DE9F041044600F07B
:102870004FF994F9455004F1240609E0606A48B123
:10288000304600F007FE08B100F088FA6D1E6DB208
:10289000002DF3DC4FF0FF3684F8456000F058F966
:1028A00000F036F994F9445004F1100709E020696A
:1028B00048B1384600F0EEFD08B100F06FFA6D1E29
:1028C0006DB2002DF3DC84F84460BDE8F04100F007
:1028D0003FB9000070B50446002500F0DDFA2C4E2B
:1028E000306808B9FFF796FD7CB304F00700C0F12B
:1028F0001000C1438C423DD8211800293ADD706890
:10290000814237D8224A14321046046801E0224638
:1029100004466068884202D220680028F7D13068F7
:10292000844227D015682068106060680835421A14
:10293000102A0FD96018430708D0502080F311885F
:10294000BFF34F8FBFF36F8FFEE713E0426061600C
:10295000FFF704FE61687068401A7060B2689042C8
:1029600000D2B06041F00040606000202060F0685C
:10297000401CF06000F0FCFD680707D0502080F399
:102980001188BFF34F8FBFF36F8FFEE7284670BDEE
:102990008400002010B5031F4FF080741C601B1FC3
:1029A00021F001011960191F044B0B6014390A60F2
:1029B000091F6FF0020244380A6010BD1928000890
:1029C0001CB500F0A5F814490220CDE90001002350
:1029D000322212A1144800F087FC0F490320091D80
:1029E000CDE900010023322210A1134800F07CFC45
:1029F000094904200831CDE90001002380220FA1FC
:102A0000114800F071FC04480838406800F066F98D
:102A1000BDE81C4000F09CB8080000206C656430E4
:102A20005F7461736B000000912100086C65643174
:102A30005F7461736B000000A9210008666C6F6110
:102A4000745F7461736B0000212100080B4910B59D
:102A5000094AC1E9002000208860C86008618861D7
:102A60000C2048610846FEF7E1FFBDE81040012256
:102A700003490248FFF74AB80010014074010020E2
:102A800028000020D0E9013201699A60D0E90123D1
:102A90005A604A68824201D182684A60002202611B
:102AA0000868401E08600868704700F108014FF090
:102AB000FF32C0E90112C16001610021016070476D
:102AC00000210161704730B50C68621C02D000F132
:102AD000080202E0026904E01A4653681D68A54234
:102AE000FAD953684B6099608A6051600861016847
:102AF000491C016030BD42684A6093688B609368EE
:102B00005960916008610168491C016070470000CC
:102B1000502080F31188BFF34F8FBFF36F8F0A49A6
:102B20004868401C486001280CD10848006810F033
:102B3000FF0F07D0502080F31188BFF34F8FBFF3F2
:102B40006F8FFEE770470000A000002004ED00E05A
:102B50000849486828B1401E486001D180F31188B7
:102B60007047502080F31188BFF34F8FBFF36F8FF2
:102B7000FEE70000A000002070B500282AD0A0F1D8
:102B800008046068002807DB502080F31188BFF339
:102B90004F8FBFF36F8FFEE7216839B1502080F36C
:102BA0001188BFF34F8FBFF36F8FFEE720F0004017
:102BB000606000F071F9084D6068696808446860F9
:102BC0002046FFF7CBFC2869401C2861BDE8704017
:102BD00000F0CEBC70BD0000840000204FF0E0206B
:102BE00000210161816105494FF47A720968B1FBE6
:102BF000F2F1491E41610721016170471400002074
:102C000070B5002358B100291DD00F4D002205EBEF
:102C1000C204666886420AD105EBC2030FE0502069
:102C200080F31188BFF34F8FBFF36F8FFEE71BB99F
:102C300055F8326006B92346521C082AE7D3002B08
:102C400001D0C3E9001070BDF401002070B5154635
:102C50000E460446FFF75CFF94F944100020491C1F
:102C600001D184F8440094F94510491C01D184F83D
:102C70004500FFF76DFFA06B28B92A46314604F1E5
:102C8000240000F0A9F82046BDE87040FFF7ECBD35
:102C900010B5020014D00F48406B38B1502080F3BB
:102CA0001188BFF34F8FBFF36F8FFEE700F0F4F88A
:102CB00000211046FFF7ACFA00F05AFC002807D1BB
:102CC00005494FF080500860BFF34F8FBFF36F8FFF
:102CD00010BD00003000002004ED00E070B5044697
:102CE000FFF716FF264D04B92C68201DFFF7CAFE1A
:102CF00058B9E06A234A00EB800152F8211021B94B
:102D000001218140286988432861A06A18B104F133
:102D10001800FFF7B7FE686A401C686228688442A2
:102D200008D11848211DA030FFF7E5FE6868401C57
:102D3000686004E0A868401EA860FFF73BFDFFF74D
:102D400007FF2868844202D02046FFF758FB6869D5
:102D5000002814D02868844211D1686B38B1502003
:102D600080F31188BFF34F8FBFF36F8FFEE70649E3
:102D70004FF080500860BFF34F8FBFF36F8F70BD6F
:102D8000300000203402002004ED00E002490A6A0D
:102D90000260C9684160704730000020014901208D
:102DA000C86170473000002010B50C4650B1094989
:102DB00009681831FFF787FE2046BDE81040012161
:102DC000FFF726BA502080F31188BFF34F8FBFF36F
:102DD0006F8FFEE730000020F0B40C46D0B1114BED
:102DE00041681D68E9618D681E6835621D688E68DE
:102DF000183575601D6818358D601968886201681E
:102E0000491C01600AB14FF0FF342046F0BC114666
:102E1000FFF7FEB9502080F31188BFF34F8FBFF347
:102E20006F8FFEE7300000207CB517480025CDE904
:102E300000502B46822215A1164800F055FA124C7C
:102E40002C3C012803D100F027FC012802D0401CB3
:102E500011D00EE0502080F31188BFF34F8FBFF3E5
:102E60006F8F4FF0FF30A06201206061E56000F0DD
:102E700049F8206B7CBD502080F31188BFF34F8F41
:102E8000BFF36F8FFEE700005C00002049444C4513
:102E900000000000592400080248416B491C4163AE
:102EA0007047000030000020144A506B10B1012020
:102EB000D06170470020D06110691149B0FA80F0EC
:102EC000C0F11F0000EB800051F820306BB101EB26
:102ED000800000F10803416849684160994201D1CE
:102EE00049684160C86810607047502080F31188BD
:102EF000BFF34F8FBFF36F8FFEE70000300000205D
:102F0000340200201CB537480168374A914207D186
:102F1000502080F31188BFF34F8FBFF36F8FFEE710
:102F200000683149491E884207D1502080F311883A
:102F3000BFF34F8FBFF36F8FFEE72C4908780190E6
:102F4000FF20087008788DF800009DF800009DF8BB
:102F5000002000F0F000904207D0502080F311884C
:102F6000BFF34F8FBFF36F8FFEE79DF80000204C3B
:102F700000F0500020700720A06006E0401EA06016
:102F80009DF8000040008DF800009DF8000000064C
:102F9000A068F3D4032807D0502080F31188BFF332
:102FA0004F8FBFF36F8FFEE74FF44070A060019822
:102FB00008700C482030016841F47001016001681C
:102FC00041F070410160FFF709FE00206060FDF7ED
:102FD0005BF90848016841F040410160FDF740F9A4
:102FE00000201CBD00ED00E071C20F4100E400E0D4
:102FF000A000002034EF00E010B5502080F31188CD
:10300000BFF34F8FBFF36F8F00F0B0F918B10449D1
:103010004FF080500860002080F3118810BD000040
:1030200004ED00E02DE9F04117460E46050020D0E2
:103030004FF0FF30B0FBF5F0B0421AD305FB06F0BD
:1030400010F1510F15D85030FFF744FC04000CD09C
:1030500004F150005EB12060C4E90F562046012102
:1030600000F010F8204684F84C70BDE8F081246030
:10307000F2E7502080F31188BFF34F8FBFF36F8FBB
:10308000FEE700002DE9F0410E4604004FF0010577
:103090002CD0E06B90B3AF1EB7FBF0F1206C8142F7
:1030A0003DD3FFF735FDD4E90F20216802FB001165
:1030B000A1600021A163216861600A46D4E90F0183
:1030C000401E00FB01212046E16000F8447F47706C
:1030D00004F110009EB1FFF7E8FC04F12400FFF7B3
:1030E000E4FCFFF735FD2846BDE8F081502080F371
:1030F0001188BFF34F8FBFF36F8FFEE70FE0216999
:103100000029EED000F0C6F90028EAD008494FF0B7
:1031100080500860BFF34F8FBFF36F8FE1E75020FF
:1031200080F31188BFF34F8FBFF36F8FFEE700006E
:1031300004ED00E02DE9F74783B08A4604004FF024
:10314000000603D0BAF1000F08D011E0502080F340
:103150001188BFF34F8FBFF36F8FFEE7206C38B13C
:10316000502080F31188BFF34F8FBFF36F8FFEE7BE
:1031700000F0E8F8DFF8F09000274FF0805848B9E9
:10318000059838B1502080F31188BFF34F8FBFF3FB
:103190006F8FFEE7FFF7BCFCA56BC5B1514620461B
:1031A000FFF71AF96D1EA563206950B104F11000F4
:1031B00000F070F928B1C9F80080BFF34F8FBFF35A
:1031C0006F8FFFF7C5FC012006B0BDE8F0870598BA
:1031D00008B11EB106E0FFF7BBFC27E06846FFF729
:1031E000D5FD0126FFF7B4FCFFF756FEFFF790FC74
:1031F00094F94400401C01D184F8447094F94500CE
:10320000401C01D184F84570FFF7A2FC05A968466F
:1032100000F02CF8002820460AD0FFF725FB00F02C
:10322000A7F92046FFF7DCF90028B3D00020CBE750
:10323000FFF7D6F990B104F124000599FFF7B4FD2A
:103240002046FFF711FB00F093F90028A2D1C9F83E
:103250000080BFF34F8FBFF36F8F9BE72046FFF7D0
:1032600003FB00F085F995E704ED00E02DE9F0415E
:103270000C46050014D0DCB1FFF74AFC194EF1688A
:103280006B682268C81A571C1AD02F68D6F820C05D
:103290000026674516D08B4214D8012526601BE016
:1032A000502080F31188BFF34F8FBFF36F8FFEE77D
:1032B000502080F31188BFF34F8FBFF36F8FFEE76D
:1032C000002509E0824205D9101A20602846FFF740
:1032D0005DFDF5E701252660FFF73AFC2846BDE8CD
:1032E000F0810000300000202DE9FF5F8346DDE91A
:1032F0000E87994616468A469000FFF7EBFA0500BE
:103300001DD05820FFF7E6FA040015D05821FDF72C
:103310001BF925630021CDE90241CDE900874B4629
:10332000324651465846FFF7C5F82046FEF7B4FF2F
:10333000012004B0BDE8F09F2846FFF71DFC4FF0C8
:10334000FF30F6E70548416919B1406B18B100201C
:1033500070470120704702207047000030000020B5
:103360000148C06870470000300000202DE9F0419E
:10337000464E0025706B28B1B069401CB0612846EC
:10338000BDE8F081F468641CF46013D1B06B006890
:1033900038B1502080F31188BFF34F8FBFF36F8F88
:1033A000FEE7B06BF16BB163F063306A401C3062D2
:1033B000FFF700FAB06ADFF8D8E084420BD34FF091
:1033C000000CB06B0068A0B1B06BC068C168486801
:1033D000844211D2B0623068C06A00EB80005EF8AF
:1033E0002000012800D90125F0690028C7D0012557
:1033F000C5E74FF0FF30EDE7D1E9023248699A6046
:10340000D1E902235A6043680A1D934201D1CB6877
:103410004360C1F814C003685B1E0360886A88B10A
:10342000D1E907379F60D1E907377B60476801F131
:1034300018039F4201D10B6A4360C1F828C003689A
:103440005B1E0360C86A0123376983403B433361D5
:1034500000EB80000EEB8000406888608368CB60E2
:1034600083685A608260C86A00EB80000EEB8002BD
:103470004A615EF82020521C4EF82020C86A31684C
:10348000C96A88429DD901259BE7000030000020D1
:103490003402002070B5C068C06850B3D0E907326C
:1034A000816A9A60D0E907235A604B6800F11802DC
:1034B000934201D1036A4B60002585620B685B1E55
:1034C0000B60294B596B0124D9B1284D6968C16142
:1034D0008E6806628E6872608A6085622968491CFF
:1034E0002960C06A1968C96A88423AD90120DC613A
:1034F00070BD502080F31188BFF34F8FBFF36F8FE3
:10350000FEE7D0E902624169B260D0E9022672604A
:103510004E68021D964201D1C6684E6045610D6835
:103520006D1E0D60C16A1E6904FA01F535431D6107
:103530000E4D01EB81018C3D05EB810149688160F5
:103540008E68C6608E6872608A60C16A01EB810114
:1035500005EB8102426155F82120521C45F82120DB
:10356000BFE7002070BD000030000020C002002036
:103570002DE9F047454D0024A146686B38B1FFF7AF
:10358000C7FA686B401E6863686B40B179E05020F1
:1035900080F31188BFF34F8FBFF36F8FFEE7A868EA
:1035A000DFF8ECC000264FF00108E0BB69E0DCF872
:1035B0000C00C468D4E90721A06A9160D4E907121D
:1035C0005160426804F118018A4201D1216A4160C8
:1035D000A6620168491E0160D4E902216069916018
:1035E000D4E9021251604268211D8A4201D1E26889
:1035F000426066610268521E0260E06A2F694346BB
:1036000008FA00F23A432A61214A00EB80008C3A22
:1036100002EB80004068A0608768E7608768796097
:103620008160E06A00E00FE000EB800002EB8001C7
:10363000616152F82010491C42F82010E06A2968A4
:10364000C96A884200D3EB61DCF800000028AED1E3
:103650000CB1FFF7AFF8AC693CB14746FFF786FE07
:1036600000B1EF61641EF9D1AE61E86948B1094962
:103670004FF080504FF001090860BFF34F8FBFF348
:103680006F8FFFF765FA4846BDE8F08730000020ED
:10369000C002002004ED00E01CB5FEF775FE0D48E9
:1036A000006868B10B490220091DCDE90001002323
:1036B0004FF4827208A10A48FFF716FE002807D1CE
:1036C000502080F31188BFF34F8FBFF36F8FFEE759
:1036D0001CBD000070000020546D72205376630002
:1036E0004128000810B500290AD00878002807D022
:1036F00005487844FDF7E8FA002801D0002010BD05
:103700000248784410BD0000D6010000CE01000040
:103710000808A0F500114FEA3101704743004FEA55
:10372000D30C4FEA3C0C43401FBF40070CF16051E3
:1037300013F0FE4F70471CF0006F03D100200CF017
:10374000004170470CF0004343EA507010B540EA66
:10375000CC0000F00EF800BF000000924FEA00011C
:10376000FFF7D6BF4FF000414FF00000A1F5002158
:1037700070470EF1020E2EF0030E5EF8044B244249
:1037800004D44FEA4102B2F17F4F11D84FEA40030F
:10379000B3F17F4F0CD80ED14FEAD07CB2F17F4FFE
:1037A0000CEB4C0C0CF1020C08BF4CEBD17C04E090
:1037B0004FF0080C01E04FEAD17C0CEB4C0324FAEB
:1037C00003F404F00704B4F1040C06D20EEB840CED
:1037D000BDE810404CF0010C6047DFE80CF0070832
:1037E00002024FF00040A0F5800010BD08464200E4
:1037F00018BFD2F1807288BF00F0004010BD4FF0BA
:103800004070E1EE100A7047FCF7A0BF0000000016
:103810000102030402400000000000A000000000BC
:1038200005400000000000C8000000000C4000003F
:103830000000409C00000000194000000020BCBEB9
:103840000000000034400000BFC91B8E00000004CF
:10385000B5400000504BCFD06607E2CF010000001A
:103860006C4100003E8251AADFEEA7340100000047
:10387000D9420000DCB5A0E23A301F97FFFFFFFFFE
:10388000B4450000FD25A0C8E9A3C14FFFFFFFFF1D
:10389000FF3F00000000008000000000FF3F00002C
:1038A0000000008000000000E43800080000002054
:1038B000AC000000C401000890390008AC000020F2
:1038C000DC340100E00100081C000000430000009F
:1038D000F8FFFFFF0C0000000E0000000F000000CA
:1038E0002E000000000000000000000000000000AA
:1038F00000000000000000000024F40001000000AF
:1039000010000000000000000000000000000000A7
:1039100000000000000000000000000000000000A7
:103920000000000000000000000000000000000097
:103930000000000000000000000000000000000087
:103940000000000004000000000000000000000073
:103950000000000000000000000000000000000067
:103960000000000000000000000000000000000057
:103970000000000000000000000000000000000047
:103980000000000000000000AAAAAAAA000000008F
:040000050800018965
:00000001FF
